:100000000C9462000C948A000C948A000C948A0070
:100010000C948A000C948A000C948A000C948A0038
:100020000C948A000C948A000C948A000C948A0028
:100030000C948A000C948A000C948A000C948A0018
:100040000C94F0020C948A000C94BE020C9498025A
:100050000C948A000C948A000C948A000C948A00F8
:100060000C948A000C948A000000000025002800EF
:100070002B0000000000240027002A0000000000E0
:1000800023002600290004040404040404040202DA
:100090000202020203030303030301020408102007
:1000A0004080010204081020010204081020000012
:1000B0000008000201000003040700000000000027
:1000C0000000BD0411241FBECFEFD8E0DEBFCDBFBE
:1000D00011E0A0E0B1E0E2EFFBE002C005900D927C
:1000E000AA31B107D9F721E0AAE1B1E001C01D9220
:1000F000A03CB207E1F710E0C2E6D0E004C02197CF
:10010000FE010E94F105C136D107C9F70E943A03EA
:100110000C94F7050C940000AF92BF92CF92DF923F
:10012000EF92FF920F931F93CF93DF936C017B01AC
:100130008B01040F151FEB015E01AE18BF08C0173D
:10014000D10759F06991D601ED91FC910190F081B0
:10015000E02DC6010995892B79F7C501DF91CF9173
:100160001F910F91FF90EF90DF90CF90BF90AF90D5
:100170000895FC01538D448D252F30E0842F90E0AD
:10018000821B930B541710F0CF9608950197089592
:10019000FC01918D828D981761F0A28DAE0FBF2F5B
:1001A000B11D5D968C91928D9F5F9F73928F90E0B1
:1001B00008958FEF9FEF0895FC01918D828D981720
:1001C00031F0828DE80FF11D858D90E008958FEF5D
:1001D0009FEF0895FC01918D228D892F90E0805C26
:1001E0009F4F821B91098F739927089583E291E0B5
:1001F0000E94EA0021E0892B09F420E0822F089573
:1002000080E090E0892B29F00E94F60081110C9487
:1002100000000895FC01A48DA80FB92FB11DA35AA9
:10022000BF4F2C91848D90E001968F739927848F16
:10023000A689B7892C93A089B1898C918370806439
:100240008C93938D848D981306C00288F389E02DDA
:1002500080818F7D80830895EF92FF920F931F938B
:10026000CF93DF93EC0181E0888F9B8D8C8D981369
:100270001AC0E889F989808185FF15C09FB7F89475
:10028000EE89FF896083E889F989808183708064C1
:1002900080839FBF81E090E0DF91CF911F910F910C
:1002A000FF90EF900895F62E0B8D10E00F5F1F4F1B
:1002B0000F731127E02E8C8D8E110CC00FB607FC2A
:1002C000FACFE889F989808185FFF5CFCE010E94B8
:1002D0000A01F1CFEB8DEC0FFD2FF11DE35AFF4F1B
:1002E000F0829FB7F8940B8FEA89FB898081806246
:1002F000CFCFCF93DF93EC01888D8823B9F0AA8903
:10030000BB89E889F9898C9185FD03C0808186FDD0
:100310000DC00FB607FCF7CF8C9185FFF2CF80811F
:1003200085FFEDCFCE010E940A01E9CFDF91CF9189
:100330000895833081F028F4813099F08230A9F05B
:1003400008958730A9F08830C9F08430B1F48091E5
:1003500080008F7D03C0809180008F778093800024
:10036000089584B58F7784BD089584B58F7DFBCFC4
:100370008091B0008F778093B00008958091B00095
:100380008F7DF9CF1F93CF93DF93282F30E0F901B2
:10039000E255FF4F8491F901E656FF4FD491F901E0
:1003A000EA57FF4FC491CC23A9F0162F81110E9468
:1003B0009901EC2FF0E0EE0FFF1FE859FF4FA591D8
:1003C000B4918FB7F894EC91111108C0D095DE2349
:1003D000DC938FBFDF91CF911F910895DE2BF8CF73
:1003E0003FB7F89480911F0190912001A0912101C5
:1003F000B091220126B5A89B05C02F3F19F00196A8
:10040000A11DB11D3FBFBA2FA92F982F8827BC016E
:10041000CD01620F711D811D911D42E0660F771F96
:10042000881F991F4A95D1F708958F929F92AF9296
:10043000BF92CF92DF92EF92FF920E94F0014B01A8
:100440005C0184E6C82ED12CE12CF12C0E94F00135
:10045000681979098A099B09683E734081059105ED
:10046000A8F321E0C21AD108E108F10888EE880E4D
:1004700083E0981EA11CB11CC114D104E104F10455
:1004800029F7FF90EF90DF90CF90BF90AF909F90B3
:100490008F9008958F929F92AF92BF920F931F9368
:1004A000CF93DF93CDB7DEB7A1970FB6F894DEBF39
:1004B0000FBECDBF19A2423008F44AE08E010F5D95
:1004C0001F4F842E912CB12CA12CA50194010E94C8
:1004D000C005E62FB901CA01EA3044F5E05DD80154
:1004E000EE938D01232B242B252B79F790E080E0D0
:1004F000109769F0FD0101900020E9F73197AF01F5
:100500004A1B5B0BBD0183E291E00E948C00A19627
:100510000FB6F894DEBF0FBECDBFDF91CF911F9114
:100520000F91BF90AF909F908F900895E95CD7CFC7
:100530001F920F920FB60F9211242F933F934F9358
:100540005F936F937F938F939F93AF93BF93EF933B
:10055000FF9383E291E00E940A01FF91EF91BF9126
:10056000AF919F918F917F916F915F914F913F914B
:100570002F910F900FBE0F901F9018951F920F9202
:100580000FB60F9211242F938F939F93EF93FF93A6
:10059000E0913301F09134018081E0913901F091D3
:1005A0003A0182FD1BC0908180913C018F5F8F7367
:1005B00020913D01821741F0E0913C01F0E0ED5DBA
:1005C000FE4F958F80933C01FF91EF919F918F910A
:1005D0002F910F900FBE0F901F9018958081F4CF30
:1005E0001F920F920FB60F9211242F933F938F9368
:1005F0009F93AF93BF9380911B0190911C01A09199
:100600001D01B0911E0130911A0123E0230F2D37F7
:1006100058F50196A11DB11D20931A0180931B016D
:1006200090931C01A0931D01B0931E0180911F01A6
:1006300090912001A0912101B09122010196A11D6C
:10064000B11D80931F0190932001A0932101B093CD
:100650002201BF91AF919F918F913F912F910F9068
:100660000FBE0F901F90189526E8230F0296A11D2C
:10067000B11DD2CF789484B5826084BD84B5816089
:1006800084BD85B5826085BD85B5816085BD80915D
:100690006E00816080936E001092810080918100D5
:1006A00082608093810080918100816080938100CD
:1006B000809180008160809380008091B10084608F
:1006C0008093B1008091B00081608093B0008091F0
:1006D0007A00846080937A0080917A0082608093AF
:1006E0007A0080917A00816080937A0080917A000C
:1006F000806880937A001092C10022E030E0F90116
:10070000E656FF4F4491F901EA57FF4F8491882341
:1007100099F090E0880F991FFC01EE58FF4FA591CA
:10072000B491FC01E859FF4F859194918FB7F894EB
:10073000EC91E42BEC938FBF2F5F3F4F28303105B6
:10074000F1F656EAC52E50E0D52EF601249102E9C5
:1007500010E0F80184918823C1F090E0880F991F80
:10076000FC01EE58FF4FA591B491FC01E859FF4FF1
:10077000C591D4913FB7F8949C91822F809598238E
:100780009C939881892388833FBF80E480937C0079
:1007900080917A00806480937A0080917A0086FD4F
:1007A000FCCF6091780070917900072E000C880BC7
:1007B000990B611571058105910511F00E94850560
:1007C000E0913301F091340182E08083E0912F01C8
:1007D000F09130011082E0913101F09132018FEC03
:1007E000808310923B01E0913701F091380186E05F
:1007F0008083E0913501F0913601808180618083B2
:10080000E0913501F0913601808188608083E0912C
:100810003501F0913601808180688083E091350157
:10082000F091360180818F7D80839AEB292E90E0B4
:10083000392E26E0822E912CA12CB12C30E0E32E13
:1008400030E0F32EF1018491F601C491F801D491C6
:10085000DD2309F486C081110E949901ED2FF0E09B
:10086000EE0FFF1FE458FF4FA591B4918C91C82360
:1008700009F477C0C2E060E08C2F0E94C201CF5F14
:10088000C830C9F7C2E0D0E005C060E08C2F8150CD
:100890000E94C20161E08C2F0E94C2010E941502D9
:1008A0002196C830D10589F7C7E0D0E005C060E0E7
:1008B0008C2F8F5F0E94C20161E08C2F0E94C201C9
:1008C0000E9415022197C130D10589F70E94360593
:1008D000A50194010E948E052B013C016F5F7F4FA3
:1008E0008F4F9F4FEB0197FF0BC06DE283E291E0CA
:1008F0000E942C01C301B20160957095809590957E
:100900004AE00E944A0242E050E066E171E083E280
:1009100091E00E948C0061E082E00E94C201C2303E
:10092000D105FCF061E083E00E94C201C230D10534
:10093000C1F061E084E00E94C201C330D10589F0BA
:1009400061E085E00E94C201C430D10551F061E050
:1009500086E00E94C201269721F461E087E00E94B0
:10096000C201E114F10409F46DCF0E94F60088235E
:1009700009F468CF0E94000065CFE3E2F1E0138242
:10098000128288EE93E0A0E0B0E084839583A68392
:10099000B78388E091E09183808385EC90E0958730
:1009A000848784EC90E09787868780EC90E0918B39
:1009B000808B81EC90E0938B828B82EC90E0958B26
:1009C000848B86EC90E0978B868B118E128E138E23
:1009D000148E08958F929F92AF92BF92CF92DF9222
:1009E000EF92FF92CF93DF93EC01688179818A8146
:1009F0009B81611571058105910521F464E279ED12
:100A00008BE597E02DE133EF41E050E00E948E0549
:100A100049015A019B01AC01A7EAB1E40E94AD056E
:100A20006B017C01ACEEB4EFA50194010E94BB0503
:100A3000C60ED71EE81EF91EF7FE06C081E0C81AD2
:100A4000D108E10880E8F80AC882D982EA82FB82EC
:100A5000C701B6019F77DF91CF91FF90EF90DF90B4
:100A6000CF90BF90AF909F908F9008958F929F925C
:100A7000AF92BF92CF92DF92EF92FF92609100010E
:100A8000709101018091020190910301611571053E
:100A90008105910521F464E279ED8BE597E02DE184
:100AA00033EF41E050E00E948E0549015A019B015D
:100AB000AC01A7EAB1E40E94AD056B017C01ACEE8C
:100AC000B4EFA50194010E94BB05C60ED71EE81E17
:100AD000F91EF7FE06C081E0C81AD108E10880E8D7
:100AE000F80AC0920001D0920101E0920201F09256
:100AF0000301C701B6019F77FF90EF90DF90CF9081
:100B0000BF90AF909F908F90089560930001709375
:100B1000010180930201909303010895052E97FB34
:100B20001EF400940E94A50557FD07D00E94C00541
:100B300007FC03D04EF40C94A505509540953095D4
:100B400021953F4F4F4F5F4F089590958095709539
:100B500061957F4F8F4F9F4F08950E94E205A59F9B
:100B6000900DB49F900DA49F800D911D11240895A8
:100B7000B7FF0C94AD050E94AD05821B930B089541
:100B8000A1E21A2EAA1BBB1BFD010DC0AA1FBB1F91
:100B9000EE1FFF1FA217B307E407F50720F0A21B03
:100BA000B30BE40BF50B661F771F881F991F1A9470
:100BB00069F760957095809590959B01AC01BD019A
:100BC000CF010895A29FB001B39FC001A39F700DF4
:100BD000811D1124911DB29F700D811D1124911D45
:100BE0000895EE0FFF1F0590F491E02D0994F894FD
:020BF000FFCF35
:100BF20001000000000000002C018C00B900790106
:0A0C0200EA00C800DC000D0A000043
:00000001FF
