:100000000C9435010C9466010C9466010C94660105
:100010000C9466010C9466010C9466010C946601C4
:100020000C9466010C9466010C9466010C946601B4
:100030000C9466010C9466010C9466010C946601A4
:100040000C9466010C9466010C9466010C94660194
:100050000C9466010C9466010C9466010C943904AE
:100060000C9466010C9403040C94D9030C9466015F
:100070000C9466010C9466010C9466010C94660164
:100080000C9466010C9466010C9466010C94660154
:100090000C9466010C9466010C9466010C94660144
:1000A0000C9466010C9466010C9466010C94660134
:1000B0000C9466010C9466010C9466010C94660124
:1000C0000C9466010C9466010C9466010C94660114
:1000D0000C9466010C9466010C9466010C94660104
:1000E0000C9466010C94E3020C94C0020C94ED0293
:1000F0000C9468010C94CC020C94FB020C94D50275
:100100000C94B8010C942B060C94C4020C94950129
:100110000C94FE010C94FA020C94A4010C94D902E4
:100120000C94C6010C94F1020C94BA020C94C8020F
:100130000C94F5020C94CF020C94E7020C94DF02AD
:100140000C944B020C94FF020000220025002800B2
:100150002B002E00310034000201000005010801CF
:100160000B0100002100240027002A002D00300090
:10017000330001010000040107010A010000200012
:100180002300260029002C002F003200000100006F
:10019000030106010901050505050705080808080A
:1001A000020202020A0A080804040404010101010F
:1001B000010101010303030303030303040707070A
:1001C0000C0C0C0C0C0C0C0C0202020206060606AF
:1001D000060606060B0B0B0B0B0B0B0B010210207C
:1001E000200808102040102040800201020108046D
:1001F0000201010204081020408080402010080401
:100200000201800402018040201008040201080459
:10021000020101020408102040800102040810209D
:10022000408000000A0B02090C0D0E0807030401B0
:1002300000000000000000000000000000000000BE
:10024000000000000000000000000000000012118B
:10025000100000000000000000000000000000008E
:1002600000000000000000002B0611241FBECFEF8D
:10027000D1E2DEBFCDBF00E00CBF12E0A0E0B2E0F3
:10028000E2EDFEE000E00BBF02C007900D92AA3144
:10029000B107D9F722E0AAE1B2E001C01D92A03C6B
:1002A000B207E1F711E0C5E3D1E000E006C0219715
:1002B0000109802FFE010E945F07C433D10780E04F
:1002C0000807A9F70E9483040C9467070C940000A8
:1002D000AF92BF92CF92DF92EF92FF920F931F9354
:1002E000CF93DF936C017B018B01040F151FEB0192
:1002F0005E01AE18BF08C017D10759F06991D60149
:10030000ED91FC910190F081E02DC6011995892BAA
:1003100079F7C501DF91CF911F910F91FF90EF9079
:10032000DF90CF90BF90AF900895FC01538D448D26
:10033000252F30E0842F90E0821B930B541710F090
:10034000CF96089501970895FC01918D828D98179D
:1003500061F0A28DAE0FBF2FB11D5D968C91928D75
:100360009F5F9F73928F90E008958FEF9FEF0895A6
:10037000FC01918D828D981731F0828DE80FF11D6F
:10038000858D90E008958FEF9FEF0895FC01918D8A
:10039000228D892F90E0805C9F4F821B91098F7383
:1003A0009927089583E292E00E94C60121E0892BFB
:1003B00009F420E0822F0895FC01A48DA80FB92F25
:1003C000B11DA35ABF4F2C91848D90E001968F737D
:1003D0009927848FA689B7892C93A089B1898C919C
:1003E000837080648C93938D848D981306C00288EB
:1003F000F389E02D80818F7D80830895EF92FF92B5
:100400000F931F93CF93DF93EC0181E0888F9B8D37
:100410008C8D98131AC0E889F989808185FF15C0F1
:100420009FB7F894EE89FF896083E889F989808114
:100430008370806480839FBF81E090E0DF91CF91E3
:100440001F910F91FF90EF900895F62E0B8D10E005
:100450000F5F1F4F0F731127E02E8C8D8E110CC074
:100460000FB607FCFACFE889F989808185FFF5CFBF
:10047000CE010E94DC01F1CFEB8DEC0FFD2FF11DC1
:10048000E35AFF4FF0829FB7F8940B8FEA89FB89FC
:1004900080818062CFCFCF93DF93EC01888D88235A
:1004A000B9F0AA89BB89E889F9898C9185FD03C0D7
:1004B000808186FD0DC00FB607FCF7CF8C9185FFBC
:1004C000F2CF808185FFEDCFCE010E94DC01E9CF24
:1004D000DF91CF91089580E090E0892B29F00E9470
:1004E000D20181110E94000080E090E0892B49F048
:1004F00080E090E0892B29F00E94000081110E9489
:10050000000080E090E0892B49F080E090E0892BAA
:1005100029F00E94000081110E94000080E090E01C
:10052000892B49F080E090E0892B29F00E9400009F
:1005300081110C94000008958150823108F05AC056
:10054000E82FF0E08827E855FD4F8F4F0C945F07A8
:10055000C802CC02BA02C002C402FA02CF02D5021B
:10056000D902DF02E302E702ED02F102FA02F5022C
:10057000FB02FF02809180008F77809380000895B6
:10058000809180008F7DF9CF80918000877FF5CFAB
:1005900084B58F7784BD089584B58F7DFBCF80911E
:1005A000B0008F778093B00008958091B0008F7D68
:1005B000F9CF809190008F7780939000089580917B
:1005C00090008F7DF9CF80919000877FF5CF80914B
:1005D000A0008F778093A00008958091A0008F7D68
:1005E000F9CF8091A000877FF5CF809120018F7790
:1005F000809320010895809120018F7DF9CF809113
:100600002001877FF5CF1F93CF93DF93282F30E012
:10061000F901EE5DFD4F8491F901E452FE4FD49152
:10062000F901EA56FE4FC491CC23A9F0162F81118F
:100630000E949C02EC2FF0E0EE0FFF1FE85BFE4FE4
:10064000A591B4918FB7F894EC91111108C0D09591
:10065000DE23DC938FBFDF91CF911F910895DE2BB6
:10066000F8CF3FB7F89480911F0290912002A0919B
:100670002102B091220226B5A89B05C02F3F19F098
:100680000196A11DB11D3FBFBA2FA92F982F882712
:10069000BC01CD01620F711D811D911D42E0660FED
:1006A000771F881F991F4A95D1F708958F929F92BF
:1006B000AF92BF92CF92DF92EF92FF920E943103EE
:1006C0004B015C0184E6C82ED12CE12CF12C0E9458
:1006D0003103681979098A099B09683E73408105CD
:1006E0009105A8F321E0C21AD108E108F10888EECB
:1006F000880E83E0981EA11CB11CC114D104E10432
:10070000F10429F7FF90EF90DF90CF90BF90AF906A
:100710009F908F9008958F929F92AF92BF920F9368
:100720001F93CF93DF93CDB7DEB7A1970FB6F894A1
:10073000DEBF0FBECDBF19A2423008F44AE08E01E1
:100740000F5D1F4F842E912CB12CA12CA50194017B
:100750000E942E07E62FB901CA01EA3044F5E05D98
:10076000D801EE938D01232B242B252B79F790E0D4
:1007700080E0109769F0FD0101900020E9F73197C2
:10078000AF014A1B5B0BBD0183E292E00E9468014E
:10079000A1960FB6F894DEBF0FBECDBFDF91CF910B
:1007A0001F910F91BF90AF909F908F900895E95C3B
:1007B000D7CF1F920F920FB60F9211240BB60F9244
:1007C0002F933F934F935F936F937F938F939F9359
:1007D000AF93BF93EF93FF9383E292E00E94DC011B
:1007E000FF91EF91BF91AF919F918F917F916F9109
:1007F0005F914F913F912F910F900BBE0F900FBEC5
:100800000F901F9018951F920F920FB60F92112400
:100810000BB60F922F938F939F93EF93FF93E091DB
:100820003302F09134028081E0913902F0913A0272
:1008300082FD1DC0908180913C028F5F8F7320915B
:100840003D02821741F0E0913C02F0E0ED5DFD4F8A
:10085000958F80933C02FF91EF919F918F912F9103
:100860000F900BBE0F900FBE0F901F9018958081B8
:10087000F2CF1F920F920FB60F9211242F933F9336
:100880008F939F93AF93BF9380911B0290911C0213
:10089000A0911D02B0911E0230911A0223E0230F95
:1008A0002D3758F50196A11DB11D20931A02809392
:1008B0001B0290931C02A0931D02B0931E02809114
:1008C0001F0290912002A0912102B0912202019674
:1008D000A11DB11D80931F0290932002A0932102BD
:1008E000B0932202BF91AF919F918F913F912F9131
:1008F0000F900FBE0F901F90189526E8230F0296B9
:10090000A11DB11DD2CF789484B5826084BD84B519
:10091000816084BD85B5826085BD85B5816085BDFA
:1009200080916E00816080936E00109281008091B2
:10093000810082608093810080918100816080933A
:100940008100809180008160809380008091B1005F
:1009500084608093B1008091B00081608093B0008A
:1009600080919100826080939100809191008160DC
:10097000809391008091900081608093900080919D
:10098000A10082608093A1008091A100816080938A
:10099000A1008091A00081608093A000809121013E
:1009A00082608093210180912101816080932101E7
:1009B0008091200181608093200180917A00846081
:1009C00080937A0080917A00826080937A0080918F
:1009D0007A00816080937A0080917A0080688093A9
:1009E0007A001092C10022E030E0F901E452FE4F9B
:1009F0004491F901EA56FE4F8491882399F090E0E2
:100A0000880F991FFC01EE59FE4FA591B491FC018E
:100A1000E85BFE4F859194918FB7F894EC91E42BAD
:100A2000EC938FBF2F5F3F4F28303105F1F608EE72
:100A300011E0F801249142EAE42E41E0F42EF7019E
:100A400084918823C1F090E0880F991FFC01EE5932
:100A5000FE4FA591B491FC01E85BFE4FC591D49186
:100A60003FB7F8949C91822F809598239C9398810E
:100A7000892388833FBF80917B00877F80937B00A1
:100A800080E480937C0080917A00806480937A0077
:100A900080917A0086FDFCCF60917800709179009A
:100AA000072E000C880B990B6115710581059105C6
:100AB00011F00E94F306E0913302F091340282E0DB
:100AC0008083E0912F02F09130021082E091310298
:100AD000F09132028FEC808310923B02E09137025A
:100AE000F091380286E08083E0913502F091360281
:100AF000808180618083E0913502F09136028081AF
:100B000088608083E0913502F091360280818068B0
:100B10008083E0913502F091360280818F7D808361
:100B20009EE2C92E92E0D92E26E0822E912CA12C95
:100B3000B12CF6018491F801C491F701D491DD2321
:100B400009F486C081110E949C02ED2FF0E0EE0FA7
:100B5000FF1FE458FE4FA591B4918C91C82309F46E
:100B600077C0C2E060E08C2F0E940303CF5FC830E3
:100B7000C9F7C2E0D0E005C060E08C2F81500E9430
:100B8000030361E08C2F0E9403030E945603219609
:100B9000C830D10589F7C7E0D0E005C060E08C2FF0
:100BA0008F5F0E94030361E08C2F0E9403030E9469
:100BB00056032197C130D10589F70E94A406A501EB
:100BC00094010E94FC062B013C016F5F7F4F8F4F09
:100BD0009F4FEB0197FF0BC06DE283E292E00E9412
:100BE000FE01C301B20160957095809590954AE031
:100BF0000E948B0342E050E066E172E083E292E003
:100C00000E94680161E082E00E940303C230D105C6
:100C1000FCF061E083E00E940303C230D105C1F023
:100C200061E084E00E940303C330D10589F061E0F4
:100C300085E00E940303C430D10551F061E086E0F5
:100C40000E940303269721F461E087E00E940303DA
:100C50000E946B026ECFE3E2F2E01382128288EE12
:100C600093E0A0E0B0E084839583A683B78388E017
:100C700092E09183808385EC90E09587848784EC73
:100C800090E09787868780EC90E0918B808B81EC59
:100C900090E0938B828B82EC90E0958B848B86EC3A
:100CA00090E0978B868B118E128E138E148E089582
:100CB0008F929F92AF92BF92CF92DF92EF92FF926C
:100CC000CF93DF93EC01688179818A819B816115E3
:100CD00071058105910521F464E279ED8BE597E0DA
:100CE0002DE133EF41E050E00E94FC0649015A013A
:100CF0009B01AC01A7EAB1E40E941B076B017C01D8
:100D0000ACEEB4EFA50194010E942907C60ED71ED0
:100D1000E81EF91EF7FE06C081E0C81AD108E108F6
:100D200080E8F80AC882D982EA82FB82C701B6014C
:100D30009F77DF91CF91FF90EF90DF90CF90BF90A2
:100D4000AF909F908F9008958F929F92AF92BF9295
:100D5000CF92DF92EF92FF926091000270910102B8
:100D60008091020290910302611571058105910540
:100D700021F464E279ED8BE597E02DE133EF41E07A
:100D800050E00E94FC0649015A019B01AC01A7EA10
:100D9000B1E40E941B076B017C01ACEEB4EFA5012E
:100DA00094010E942907C60ED71EE81EF91EF7FE01
:100DB00006C081E0C81AD108E10880E8F80AC092AC
:100DC0000002D0920102E0920202F0920302C701F7
:100DD000B6019F77FF90EF90DF90CF90BF90AF90DC
:100DE0009F908F900895609300027093010280930A
:100DF0000202909303020895052E97FB1EF40094BF
:100E00000E94130757FD07D00E942E0707FC03D04E
:100E10004EF40C94130750954095309521953F4F13
:100E20004F4F5F4F089590958095709561957F4FD6
:100E30008F4F9F4F08950E945007A59F900DB49F1C
:100E4000900DA49F800D911D11240895B7FF0C945F
:100E50001B070E941B07821B930B0895A1E21A2E09
:100E6000AA1BBB1BFD010DC0AA1FBB1FEE1FFF1F4E
:100E7000A217B307E407F50720F0A21BB30BE40B9E
:100E8000F50B661F771F881F991F1A9469F76095E5
:100E90007095809590959B01AC01BD01CF0108959F
:100EA000A29FB001B39FC001A39F700D811D1124AB
:100EB000911DB29F700D811D1124911D0895EE0F9B
:100EC000FF1F881F8BBF0790F691E02D1994F894AF
:020ED000FFCF52
:100ED2000100000000000000FE01680195014B02C4
:0A0EE200C601A401B8010D0A0000CA
:00000001FF
